:030000000209B43E
:0C09B400787FE4F6D8FD75811D0209FB78
:100A8300656E746572207468652070617373776F27
:100A930072640070617373776F726420636F727234
:100AA3006563740070617373776F726420696E633A
:0D0AB3006F727265637400626567696E00A2
:0C0B3B000A13626F626279000000000083
:080B48008F993099FDC299223A
:100B2400120800FF600C120B48740129F9E43AFA28
:070B340080EE7F0D020B486B
:100AF900E4FDFC7BFF7A0A7983120B24E599640DE6
:100B090060183098FDC298E599640D60EF74092D5D
:0A0B1900F8A6990DBD00010C80E262
:010B230022AF
:100AC000120AF978097C007D007B007A0079131204
:100AD0000997EF70097BFF7A0A7996020B247BFF56
:100AE0007A0A79A7120B247B007A007909120B2469
:090AF0007A007913120B2480C76F
:100A4000758920759850758DFDD28E7BFF7A0A7955
:100A5000BA120B24120AC03098FD85991DC298E580
:100A60001DB44104D2A180EFE51DB44204C2A180AF
:100A7000E6E51DB44304D2A280DDE51DB444D8C22E
:030A8000A280D47D
:1009C000020A40E493A3F8E493A34003F68001F203
:1009D00008DFF48029E493A3F85407240CC8C33338
:1009E000C4540F4420C8834004F456800146F6DF07
:1009F000E4800B0102040810204080900B3BE47E51
:100A0000019360BCA3FF543F30E509541FFEE493FB
:100A1000A360010ECF54C025E060A840B8E493A3C2
:100A2000FAE493A3F8E493A3C8C582C8CAC583CAED
:100A3000F0A3C8C582C8CAC583CADFE9DEE780BEA5
:010B470000AD
:10080000BB010689828A83E0225002E722BBFE02F6
:09081000E32289828A83E4932229
:10081900E3F5F009E208B5F06D606B80F3E3F5F0FC
:1008290009E608B5F060605E80F387F009E608B56F
:10083900F054605280F487F009E208B5F048604648
:1008490080F488828C8387F009E0A3B5F03860369C
:1008590080F488828C8387F009E493A3B5F027603C
:100869002580F388828C83E3F5F009E0A3B5F016BF
:10087900601480F388828C83E3F5F009E493A3B5CF
:10088900F004600280F2020944808580E7808E804E
:10089900D2803C8015806C807E809B80B5808B8067
:1008A900A1804F8070803A02095089828A83ECFACC
:1008B900E493F5F0A3C8C582C8CCC583CCE493A35F
:1008C900C8C582C8CCC583CCB5F070606E80E1899B
:1008D900828A83E493F5F0A3E208B5F05E605C8058
:1008E900F289828A83E0F5F0A3E608B5F04D604B02
:1008F90080F389828A83E0F5F0A3E208B5F03C60D1
:100909003A80F389828A83E493F5F0A3E608B5F087
:100919002A602880F2805389828A83ECFAE493F56D
:10092900F0A3C8C582C8CCC583CCE0A3C8C582C81A
:10093900CCC583CCB5F004600280E27FFFB5F0023C
:100949000F2240027F012289828A83ECFAE0F5F0C6
:10095900A3C8C582C8CCC583CCE0A3C8C582C8CC0E
:10096900C583CCB5F0D560D380E389828A83ECFA5C
:10097900E0F5F0A3C8C582C8CCC583CCE493A3C86D
:10098900C582C8CCC583CCB5F0B160AF80E288F030
:10099900ED2402B4040050A3F582EB2402B4040050
:0B09A90050992323458223900892738D
:00000001FF
